:04000000E5EF3EF0FA
:107DCA00F00EF66E7D0EF76E000EF86E00EE60F0A5
:107DDA0010EE28F00900F5CFEEFFE550E150FAE188
:107DEA0000015EEF3FF03200230015000A00020096
:107DFA00000002000A0015002300320041004F0073
:107E0A005A006200640062005A004F004100000EEE
:107E1A00066E0450800AF36E800EF35C000ED8B42E
:107E2A00035CD8B006D0036C041ED8B0042A010E35
:107E3A00066E0250800AF36E800EF35C000ED8B410
:107E4A00015CD8B006D0016C021ED8B0022A010E1D
:107E5A00061A000E086E000E076E04500310D8B4FE
:107E6A001CD0010E056E04D0D89003360436052ABC
:107E7A0004AEFAD7D890073608360350015C04508E
:107E8A000258D8A005D00350015E0450025A078058
:107E9A00D89004320332052EEDD70650D8B404D058
:107EAA00076C081ED8B0082A07C001F008C002F003
:107EBA001200720ED36E949420EE60F010EE0EF063
:107ECA00280EDECFE6FFE82EFCD7000E3B6E000E32
:107EDA003A6E3B50800A800F140ED8B43A5CD8B080
:107EEA002BD00E0E096E000E0A6ED8903A34D96E57
:107EFA003B34DA6E0950D9260A50DA22DECF01F075
:107F0A00DDCF02F0000E046E0A0E036E0CEC3FF099
:107F1A000E0E0B6E000E0C6ED8903A34D96E3B34AE
:107F2A00DA6E0B50D9260C50DA2201C0DEFF02C0ED
:107F3A00DDFF3A4A3B2ACDD7000E3B6E000E3A6E61
:107F4A003B50800A800F140ED8B43A5CD8B0F4D7EC
:107F5A00000E396E000E386E03D08284384A392AF0
:107F6A000E0E096E000E0A6ED8903A34D96E3B3462
:107F7A00DA6E0950D9260A50DA22DECF0BF0DDCFAD
:107F8A000CF03950800A0D6E0B50385C0C50800A88
:107F9A000D58D8A0E2D70E0E096E000E0A6ED890C0
:107FAA003A34D96E3B34DA6E0950D9260A50DA22AD
:107FBA00DECF0BF0DDCF0CF00B1E0C1E0B4A0C2A89
:107FCA000A0E0B24366E000E0C20376E000E396E28
:107FDA00000E386E03D08294384A392A3950800A02
:107FEA00096E3650385C3750800A0958D8A0F3D742
:067FFA003A4A3B2AA5D71C
:020000040020DA
:08000000FFFFFFFFFFFFFFFF00
:020000040030CA
:0E00000000255F3FFFD385FF0FC00FE00F40CC
:00000001FF
